{
  "contractName": "RccDao",
  "abi": [
    {
      "constant": false,
      "inputs": [],
      "name": "unpause",
      "outputs": [],
      "payable": false,
      "stateMutability": "nonpayable",
      "type": "function"
    },
    {
      "constant": true,
      "inputs": [],
      "name": "paused",
      "outputs": [
        {
          "name": "",
          "type": "bool"
        }
      ],
      "payable": false,
      "stateMutability": "view",
      "type": "function"
    },
    {
      "constant": false,
      "inputs": [],
      "name": "pause",
      "outputs": [],
      "payable": false,
      "stateMutability": "nonpayable",
      "type": "function"
    },
    {
      "inputs": [
        {
          "name": "rcc_address",
          "type": "address"
        }
      ],
      "payable": false,
      "stateMutability": "nonpayable",
      "type": "constructor"
    },
    {
      "anonymous": false,
      "inputs": [
        {
          "indexed": true,
          "name": "id",
          "type": "uint256"
        },
        {
          "indexed": true,
          "name": "ask_address",
          "type": "address"
        },
        {
          "indexed": true,
          "name": "associatted_address",
          "type": "address"
        },
        {
          "indexed": false,
          "name": "amount",
          "type": "uint256"
        },
        {
          "indexed": false,
          "name": "message",
          "type": "string"
        }
      ],
      "name": "Ask",
      "type": "event"
    },
    {
      "anonymous": false,
      "inputs": [
        {
          "indexed": true,
          "name": "id",
          "type": "uint256"
        },
        {
          "indexed": true,
          "name": "ask_address",
          "type": "address"
        },
        {
          "indexed": true,
          "name": "associatted_address",
          "type": "address"
        },
        {
          "indexed": false,
          "name": "amount",
          "type": "uint256"
        },
        {
          "indexed": false,
          "name": "message",
          "type": "string"
        }
      ],
      "name": "Approve",
      "type": "event"
    },
    {
      "anonymous": false,
      "inputs": [
        {
          "indexed": false,
          "name": "account",
          "type": "address"
        }
      ],
      "name": "Paused",
      "type": "event"
    },
    {
      "anonymous": false,
      "inputs": [
        {
          "indexed": false,
          "name": "account",
          "type": "address"
        }
      ],
      "name": "Unpaused",
      "type": "event"
    },
    {
      "constant": false,
      "inputs": [
        {
          "name": "_address",
          "type": "address"
        },
        {
          "name": "name",
          "type": "string"
        },
        {
          "name": "ref",
          "type": "string"
        },
        {
          "name": "minter",
          "type": "bool"
        }
      ],
      "name": "newAssociated",
      "outputs": [],
      "payable": false,
      "stateMutability": "nonpayable",
      "type": "function"
    },
    {
      "constant": false,
      "inputs": [
        {
          "name": "_address",
          "type": "address"
        }
      ],
      "name": "disableAssociated",
      "outputs": [
        {
          "name": "",
          "type": "bool"
        }
      ],
      "payable": false,
      "stateMutability": "nonpayable",
      "type": "function"
    },
    {
      "constant": false,
      "inputs": [
        {
          "name": "_address",
          "type": "address"
        }
      ],
      "name": "enableAssociated",
      "outputs": [
        {
          "name": "",
          "type": "bool"
        }
      ],
      "payable": false,
      "stateMutability": "nonpayable",
      "type": "function"
    },
    {
      "constant": true,
      "inputs": [],
      "name": "getAssociatedList",
      "outputs": [
        {
          "name": "",
          "type": "address[]"
        }
      ],
      "payable": false,
      "stateMutability": "view",
      "type": "function"
    },
    {
      "constant": true,
      "inputs": [
        {
          "name": "_address",
          "type": "address"
        }
      ],
      "name": "getAssociated",
      "outputs": [
        {
          "name": "name",
          "type": "string"
        },
        {
          "name": "enable",
          "type": "bool"
        },
        {
          "name": "ref",
          "type": "string"
        },
        {
          "name": "minter",
          "type": "bool"
        }
      ],
      "payable": false,
      "stateMutability": "view",
      "type": "function"
    },
    {
      "constant": false,
      "inputs": [
        {
          "name": "_address",
          "type": "address"
        },
        {
          "name": "amount",
          "type": "uint256"
        },
        {
          "name": "message",
          "type": "string"
        }
      ],
      "name": "ask",
      "outputs": [
        {
          "name": "",
          "type": "bool"
        }
      ],
      "payable": false,
      "stateMutability": "nonpayable",
      "type": "function"
    },
    {
      "constant": false,
      "inputs": [
        {
          "name": "id",
          "type": "uint256"
        },
        {
          "name": "_address",
          "type": "address"
        },
        {
          "name": "amount",
          "type": "uint256"
        },
        {
          "name": "message",
          "type": "string"
        }
      ],
      "name": "approve",
      "outputs": [
        {
          "name": "",
          "type": "bool"
        }
      ],
      "payable": false,
      "stateMutability": "nonpayable",
      "type": "function"
    }
  ],
  "bytecode": "0x608060405234801561001057600080fd5b506040516020806117f38339810180604052602081101561003057600080fd5b81019080805190602001909291905050506000600281905550336000806101000a81548173ffffffffffffffffffffffffffffffffffffffff021916908373ffffffffffffffffffffffffffffffffffffffff16021790555080600160006101000a81548173ffffffffffffffffffffffffffffffffffffffff021916908373ffffffffffffffffffffffffffffffffffffffff16021790555050611719806100da6000396000f3fe608060405234801561001057600080fd5b506004361061009e5760003560e01c8063abb76afa11610066578063abb76afa14610277578063b34dded4146102d3578063bfc5d4d0146103d0578063cbacdfef146104d7578063eb121a71146105335761009e565b80632b7b90e9146100a35780633f4ba83a146101e257806352f762f6146101ec5780635c975abb1461024b5780638456cb591461026d575b600080fd5b6100e5600480360360208110156100b957600080fd5b81019080803573ffffffffffffffffffffffffffffffffffffffff1690602001909291905050506106b1565b6040518080602001851515151581526020018060200184151515158152602001838103835287818151815260200191508051906020019080838360005b8381101561013d578082015181840152602081019050610122565b50505050905090810190601f16801561016a5780820380516001836020036101000a031916815260200191505b50838103825285818151815260200191508051906020019080838360005b838110156101a3578082015181840152602081019050610188565b50505050905090810190601f1680156101d05780820380516001836020036101000a031916815260200191505b50965050505050505060405180910390f35b6101ea610924565b005b6101f4610a15565b6040518080602001828103825283818151815260200191508051906020019060200280838360005b8381101561023757808201518184015260208101905061021c565b505050509050019250505060405180910390f35b610253610aa3565b604051808215151515815260200191505060405180910390f35b610275610ab9565b005b6102b96004803603602081101561028d57600080fd5b81019080803573ffffffffffffffffffffffffffffffffffffffff169060200190929190505050610bac565b604051808215151515815260200191505060405180910390f35b6103b6600480360360608110156102e957600080fd5b81019080803573ffffffffffffffffffffffffffffffffffffffff169060200190929190803590602001909291908035906020019064010000000081111561033057600080fd5b82018360208201111561034257600080fd5b8035906020019184600183028401116401000000008311171561036457600080fd5b91908080601f016020809104026020016040519081016040528093929190818152602001838380828437600081840152601f19601f820116905080830192505050505050509192919290505050610d47565b604051808215151515815260200191505060405180910390f35b6104bd600480360360808110156103e657600080fd5b8101908080359060200190929190803573ffffffffffffffffffffffffffffffffffffffff169060200190929190803590602001909291908035906020019064010000000081111561043757600080fd5b82018360208201111561044957600080fd5b8035906020019184600183028401116401000000008311171561046b57600080fd5b91908080601f016020809104026020016040519081016040528093929190818152602001838380828437600081840152601f19601f820116905080830192505050505050509192919290505050610f05565b604051808215151515815260200191505060405180910390f35b610519600480360360208110156104ed57600080fd5b81019080803573ffffffffffffffffffffffffffffffffffffffff16906020019092919050505061119b565b604051808215151515815260200191505060405180910390f35b6106af6004803603608081101561054957600080fd5b81019080803573ffffffffffffffffffffffffffffffffffffffff1690602001909291908035906020019064010000000081111561058657600080fd5b82018360208201111561059857600080fd5b803590602001918460018302840111640100000000831117156105ba57600080fd5b91908080601f016020809104026020016040519081016040528093929190818152602001838380828437600081840152601f19601f8201169050808301925050505050505091929192908035906020019064010000000081111561061d57600080fd5b82018360208201111561062f57600080fd5b8035906020019184600183028401116401000000008311171561065157600080fd5b91908080601f016020809104026020016040519081016040528093929190818152602001838380828437600081840152601f19601f820116905080830192505050505050509192919290803515159060200190929190505050611337565b005b6060600060606000600360008673ffffffffffffffffffffffffffffffffffffffff1673ffffffffffffffffffffffffffffffffffffffff168152602001908152602001600020600001600360008773ffffffffffffffffffffffffffffffffffffffff1673ffffffffffffffffffffffffffffffffffffffff16815260200190815260200160002060010160009054906101000a900460ff16600360008873ffffffffffffffffffffffffffffffffffffffff1673ffffffffffffffffffffffffffffffffffffffff168152602001908152602001600020600201600360008973ffffffffffffffffffffffffffffffffffffffff1673ffffffffffffffffffffffffffffffffffffffff16815260200190815260200160002060030160009054906101000a900460ff16838054600181600116156101000203166002900480601f0160208091040260200160405190810160405280929190818152602001828054600181600116156101000203166002900480156108725780601f1061084757610100808354040283529160200191610872565b820191906000526020600020905b81548152906001019060200180831161085557829003601f168201915b50505050509350818054600181600116156101000203166002900480601f01602080910402602001604051908101604052809291908181526020018280546001816001161561010002031660029004801561090e5780601f106108e35761010080835404028352916020019161090e565b820191906000526020600020905b8154815290600101906020018083116108f157829003601f168201915b5050505050915093509350935093509193509193565b3373ffffffffffffffffffffffffffffffffffffffff166000809054906101000a900473ffffffffffffffffffffffffffffffffffffffff1673ffffffffffffffffffffffffffffffffffffffff161461097d57600080fd5b600060149054906101000a900460ff1661099657600080fd5b60008060146101000a81548160ff0219169083151502179055507f5db9ee0a495bf2e6ff9c91a7834c1ba4fdd244a5e8aa4e537bd38aeae4b073aa33604051808273ffffffffffffffffffffffffffffffffffffffff1673ffffffffffffffffffffffffffffffffffffffff16815260200191505060405180910390a1565b60606004805480602002602001604051908101604052809291908181526020018280548015610a9957602002820191906000526020600020905b8160009054906101000a900473ffffffffffffffffffffffffffffffffffffffff1673ffffffffffffffffffffffffffffffffffffffff1681526020019060010190808311610a4f575b5050505050905090565b60008060149054906101000a900460ff16905090565b3373ffffffffffffffffffffffffffffffffffffffff166000809054906101000a900473ffffffffffffffffffffffffffffffffffffffff1673ffffffffffffffffffffffffffffffffffffffff1614610b1257600080fd5b600060149054906101000a900460ff1615610b2c57600080fd5b6001600060146101000a81548160ff0219169083151502179055507f62e78cea01bee320cd4e420270b5ea74000d11b0c9f74754ebdbfc544b05a25833604051808273ffffffffffffffffffffffffffffffffffffffff1673ffffffffffffffffffffffffffffffffffffffff16815260200191505060405180910390a1565b60003373ffffffffffffffffffffffffffffffffffffffff166000809054906101000a900473ffffffffffffffffffffffffffffffffffffffff1673ffffffffffffffffffffffffffffffffffffffff1614610c0757600080fd5b600060149054906101000a900460ff1615610c2157600080fd5b600360008373ffffffffffffffffffffffffffffffffffffffff1673ffffffffffffffffffffffffffffffffffffffff16815260200190815260200160002060010160009054906101000a900460ff16610ce3576040517f08c379a000000000000000000000000000000000000000000000000000000000815260040180806020018281038252601f8152602001807f4173736f63696174656420697320616c72656164792064697361626c65642e0081525060200191505060405180910390fd5b6000600360008473ffffffffffffffffffffffffffffffffffffffff1673ffffffffffffffffffffffffffffffffffffffff16815260200190815260200160002060010160006101000a81548160ff02191690831515021790555060019050919050565b60008060149054906101000a900460ff1615610d6257600080fd5b600360008573ffffffffffffffffffffffffffffffffffffffff1673ffffffffffffffffffffffffffffffffffffffff16815260200190815260200160002060030160009054906101000a900460ff168015610e0a5750600360008573ffffffffffffffffffffffffffffffffffffffff1673ffffffffffffffffffffffffffffffffffffffff16815260200190815260200160002060010160009054906101000a900460ff165b15610ef9576001600254016002819055508373ffffffffffffffffffffffffffffffffffffffff163373ffffffffffffffffffffffffffffffffffffffff166002547f657ad2f6ee451f7c8f6c2b25b440c85647fb34aa4e034d000fc9f26cbb47862386866040518083815260200180602001828103825283818151815260200191508051906020019080838360005b83811015610eb5578082015181840152602081019050610e9a565b50505050905090810190601f168015610ee25780820380516001836020036101000a031916815260200191505b50935050505060405180910390a460019050610efe565b600090505b9392505050565b60008060149054906101000a900460ff1615610f2057600080fd5b600360003373ffffffffffffffffffffffffffffffffffffffff1673ffffffffffffffffffffffffffffffffffffffff16815260200190815260200160002060030160009054906101000a900460ff168015610fc85750600360003373ffffffffffffffffffffffffffffffffffffffff1673ffffffffffffffffffffffffffffffffffffffff16815260200190815260200160002060010160009054906101000a900460ff165b1561118e57600160009054906101000a900473ffffffffffffffffffffffffffffffffffffffff1673ffffffffffffffffffffffffffffffffffffffff1663095ea7b385856040518363ffffffff1660e01b8152600401808373ffffffffffffffffffffffffffffffffffffffff1673ffffffffffffffffffffffffffffffffffffffff16815260200182815260200192505050602060405180830381600087803b15801561107657600080fd5b505af115801561108a573d6000803e3d6000fd5b505050506040513d60208110156110a057600080fd5b8101908080519060200190929190505050503373ffffffffffffffffffffffffffffffffffffffff168473ffffffffffffffffffffffffffffffffffffffff16867ff491baa1c5ddc7494aa09817429f810e2d3db75ea19682cef4e2c9ab7bf4feab86866040518083815260200180602001828103825283818151815260200191508051906020019080838360005b8381101561114a57808201518184015260208101905061112f565b50505050905090810190601f1680156111775780820380516001836020036101000a031916815260200191505b50935050505060405180910390a460019050611193565b600090505b949350505050565b60003373ffffffffffffffffffffffffffffffffffffffff166000809054906101000a900473ffffffffffffffffffffffffffffffffffffffff1673ffffffffffffffffffffffffffffffffffffffff16146111f657600080fd5b600060149054906101000a900460ff161561121057600080fd5b600360008373ffffffffffffffffffffffffffffffffffffffff1673ffffffffffffffffffffffffffffffffffffffff16815260200190815260200160002060010160009054906101000a900460ff16156112d3576040517f08c379a000000000000000000000000000000000000000000000000000000000815260040180806020018281038252601e8152602001807f4173736f63696174656420697320616c726561647920656e61626c65642e000081525060200191505060405180910390fd5b6001600360008473ffffffffffffffffffffffffffffffffffffffff1673ffffffffffffffffffffffffffffffffffffffff16815260200190815260200160002060010160006101000a81548160ff02191690831515021790555060019050919050565b3373ffffffffffffffffffffffffffffffffffffffff166000809054906101000a900473ffffffffffffffffffffffffffffffffffffffff1673ffffffffffffffffffffffffffffffffffffffff161461139057600080fd5b600060149054906101000a900460ff16156113aa57600080fd5b600360008573ffffffffffffffffffffffffffffffffffffffff1673ffffffffffffffffffffffffffffffffffffffff16815260200190815260200160002060010160009054906101000a900460ff161561146d576040517f08c379a00000000000000000000000000000000000000000000000000000000081526004018080602001828103825260198152602001807f4173736f63696174656420616c72656164792065786973742e0000000000000081525060200191505060405180910390fd5b6000600360008673ffffffffffffffffffffffffffffffffffffffff1673ffffffffffffffffffffffffffffffffffffffff1681526020019081526020016000209050838160000190805190602001906114c8929190611648565b50828160020190805190602001906114e1929190611648565b50818160030160006101000a81548160ff02191690831515021790555060018160010160006101000a81548160ff02191690831515021790555060048590806001815401808255809150509060018203906000526020600020016000909192909190916101000a81548173ffffffffffffffffffffffffffffffffffffffff021916908373ffffffffffffffffffffffffffffffffffffffff16021790555050811561164157600160009054906101000a900473ffffffffffffffffffffffffffffffffffffffff1673ffffffffffffffffffffffffffffffffffffffff1663983b2d56866040518263ffffffff1660e01b8152600401808273ffffffffffffffffffffffffffffffffffffffff1673ffffffffffffffffffffffffffffffffffffffff168152602001915050600060405180830381600087803b15801561162857600080fd5b505af115801561163c573d6000803e3d6000fd5b505050505b5050505050565b828054600181600116156101000203166002900490600052602060002090601f016020900481019282601f1061168957805160ff19168380011785556116b7565b828001600101855582156116b7579182015b828111156116b657825182559160200191906001019061169b565b5b5090506116c491906116c8565b5090565b6116ea91905b808211156116e65760008160009055506001016116ce565b5090565b9056fea165627a7a72305820d6cf4a6187403e320c16b150c8f35ab663760b8266842e628cc7ef982e0c25000029",
  "source": "pragma solidity ^0.5.1;\n\nimport \"./RCC.sol\";\nimport \"./Pausable.sol\";\n\n// Contrato de gestión de la moneda de Reciclaje: ReCycling Coin: RCC\ncontract RccDao is Pausable{\n    \n    // Evento para llevar a cabo una petición de RCC a las cuentas asociadas.\n    event Ask(\n        uint indexed  id,\n        address indexed  ask_address,\n        address indexed  associatted_address,\n        uint amount,\n        string message\n    );\n\n    // Evento para llevar el control de las peticiones aprovadas por parte de las cuentas asociadas.\n    event Approve(\n        uint indexed  id,\n        address indexed  ask_address,\n        address indexed  associatted_address,\n        uint amount,\n        string message\n    );\n    \n    // Contrato de tipo RCC\n    RCC rcc;\n\n    // Contador para el control de los eventos de apetición y probación de la criptomoneda\n    uint eventId;\n    \n    // En el contructor se proporciona el acceso al contrato de RCC que mantiene las cuentas de usuarios de RCC a través de la clase abstracta ERC20 de OpenZeppeling\n    constructor(address rcc_address) public {\n        eventId = 0;\n        owner = msg.sender;\n        rcc = RCC(rcc_address);\n    }\n\n    // Estructura con la información de cada cuenta asociada\n    struct Associated {\n        string name;\n        bool enable;\n        string ref ;\n        bool minter;\n    }\n \n    // Cada Asociado tiene su dirección con la que opera sobre el contrato\n    mapping (address => Associated) _associated;\n\n    \n    // Lista completa de asociados.\n    address[] internal _associatedList;\n\n    // Método para dar de alta una cuenta asociada. Solo el propietario del contrato podrá invocarlo\n    function newAssociated(address _address, string memory name, string memory ref, bool minter) onlyOwner whenNotPaused public {\n\n        // Primero hay que comprobar que el assoiciado ya existe\n        require(!_associated[_address].enable, \"Associated already exist.\");\n        //if(_associated[_address].enable == true) revert();\n\n        //Creamos un nuevo asociado\n        Associated storage associated = _associated[_address];\n        associated.name = name;\n        associated.ref = ref;\n        associated.minter = minter;\n        associated.enable = true;\n\n        // Se añade el asociado a la tabla de asociados\n        _associatedList.push(_address);\n\n        // Se añade como Minter al nuevo asociado\n        if (minter){\n            rcc.addMinter(_address);\n        }\n    }\n\n    //Método para desactivar una cuenta de Asociado. El Propietario del contrato es el único que puede activar o desactivar\n    function disableAssociated(address _address) onlyOwner whenNotPaused public returns (bool) {\n\n        require(_associated[_address].enable, \"Associated is already disabled.\");\n        _associated[_address].enable = false;\n\n        return true;\n    }\n    // Método para volver a activar una cuenta de Asociado. El Propietario del contrato es el único que puede activar o desactivar\n    function enableAssociated(address _address) onlyOwner whenNotPaused public returns (bool) {\n\n        require(!_associated[_address].enable, \"Associated is already enabled.\");\n        _associated[_address].enable = true;\n\n        return true;\n    }\n\n    // Método de lectura de la lista de cuentas asociadas\n    function getAssociatedList() view public returns (address[] memory) {\n        return _associatedList;\n    }\n    \n    // Método para obtener la información de una cuenta asociada.\n    function getAssociated(address _address ) view public returns (string memory name, bool enable, string memory ref, bool minter) {\n        //require(!_associated[_address].enable, \"Associated is already disabled.\");\n        return (_associated[_address].name, _associated[_address].enable, _associated[_address].ref, _associated[_address].minter);\n    }\n    \n    // Método de petición de una cantidad de moneda RCC. Solo podrá pedirse a las Cuentas Asociadas de tipo minter\n    function ask(address _address, uint amount, string memory message ) public whenNotPaused returns (bool) {\n\n        if (_associated[_address].minter && _associated[_address].enable){\n            eventId = eventId + 1;\n            emit Ask(eventId, msg.sender, _address, amount, message);\n            return true;\n        }\n        else{\n            return false;\n        }\n    }\n\n    // Método para controlar si una petición de moneda RCC se ha llevado a cabo.\n    function approve(uint id, address _address, uint amount, string memory message ) public whenNotPaused returns (bool) {\n        if (_associated[msg.sender].minter && _associated[msg.sender].enable){\n            rcc.approve(_address, amount);\n            emit Approve(id, _address, msg.sender, amount, message);\n            return true;\n        }\n        else{\n            return false;\n        }\n    }\n\n}",
  "sourcePath": "/home/cesar/master/master-rcc/truffle/contracts/RccDao.sol",
  "compiler": {
    "name": "solc",
    "version": "0.5.8+commit.23d335f2.Emscripten.clang"
  },
  "schemaVersion": "3.0.13",
  "updatedAt": "2019-10-01T16:50:00.166Z",
  "devdoc": {
    "methods": {}
  },
  "userdoc": {
    "methods": {}
  }
}