{
  "contractName": "RccDao",
  "abi": [
    {
      "inputs": [
        {
          "name": "rcc_address",
          "type": "address"
        }
      ],
      "payable": false,
      "stateMutability": "nonpayable",
      "type": "constructor"
    },
    {
      "anonymous": false,
      "inputs": [
        {
          "indexed": true,
          "name": "id",
          "type": "uint256"
        },
        {
          "indexed": true,
          "name": "ask_address",
          "type": "address"
        },
        {
          "indexed": true,
          "name": "associatted_address",
          "type": "address"
        },
        {
          "indexed": false,
          "name": "amount",
          "type": "uint256"
        },
        {
          "indexed": false,
          "name": "message",
          "type": "string"
        }
      ],
      "name": "Ask",
      "type": "event"
    },
    {
      "anonymous": false,
      "inputs": [
        {
          "indexed": true,
          "name": "id",
          "type": "uint256"
        },
        {
          "indexed": true,
          "name": "ask_address",
          "type": "address"
        },
        {
          "indexed": true,
          "name": "associatted_address",
          "type": "address"
        },
        {
          "indexed": false,
          "name": "amount",
          "type": "uint256"
        },
        {
          "indexed": false,
          "name": "message",
          "type": "string"
        }
      ],
      "name": "Approve",
      "type": "event"
    },
    {
      "constant": false,
      "inputs": [
        {
          "name": "_address",
          "type": "address"
        },
        {
          "name": "name",
          "type": "string"
        },
        {
          "name": "ref",
          "type": "string"
        },
        {
          "name": "minter",
          "type": "bool"
        }
      ],
      "name": "newAssociated",
      "outputs": [],
      "payable": false,
      "stateMutability": "nonpayable",
      "type": "function"
    },
    {
      "constant": false,
      "inputs": [
        {
          "name": "_address",
          "type": "address"
        }
      ],
      "name": "disableAssociated",
      "outputs": [
        {
          "name": "",
          "type": "bool"
        }
      ],
      "payable": false,
      "stateMutability": "nonpayable",
      "type": "function"
    },
    {
      "constant": false,
      "inputs": [
        {
          "name": "_address",
          "type": "address"
        }
      ],
      "name": "enabledAssociated",
      "outputs": [
        {
          "name": "",
          "type": "bool"
        }
      ],
      "payable": false,
      "stateMutability": "nonpayable",
      "type": "function"
    },
    {
      "constant": true,
      "inputs": [],
      "name": "getAssociatedList",
      "outputs": [
        {
          "name": "",
          "type": "address[]"
        }
      ],
      "payable": false,
      "stateMutability": "view",
      "type": "function"
    },
    {
      "constant": true,
      "inputs": [
        {
          "name": "_address",
          "type": "address"
        }
      ],
      "name": "getAssociated",
      "outputs": [
        {
          "name": "name",
          "type": "string"
        },
        {
          "name": "enabled",
          "type": "bool"
        },
        {
          "name": "ref",
          "type": "string"
        },
        {
          "name": "minter",
          "type": "bool"
        }
      ],
      "payable": false,
      "stateMutability": "view",
      "type": "function"
    },
    {
      "constant": false,
      "inputs": [
        {
          "name": "id",
          "type": "uint256"
        },
        {
          "name": "_address",
          "type": "address"
        },
        {
          "name": "amount",
          "type": "uint256"
        },
        {
          "name": "message",
          "type": "string"
        }
      ],
      "name": "ask",
      "outputs": [
        {
          "name": "",
          "type": "bool"
        }
      ],
      "payable": false,
      "stateMutability": "nonpayable",
      "type": "function"
    },
    {
      "constant": false,
      "inputs": [
        {
          "name": "id",
          "type": "uint256"
        },
        {
          "name": "_address",
          "type": "address"
        },
        {
          "name": "amount",
          "type": "uint256"
        },
        {
          "name": "message",
          "type": "string"
        }
      ],
      "name": "approve",
      "outputs": [
        {
          "name": "",
          "type": "bool"
        }
      ],
      "payable": false,
      "stateMutability": "nonpayable",
      "type": "function"
    }
  ],
  "bytecode": "0x608060405234801561001057600080fd5b5060405160208061161f8339810180604052602081101561003057600080fd5b8101908080519060200190929190505050336000806101000a81548173ffffffffffffffffffffffffffffffffffffffff021916908373ffffffffffffffffffffffffffffffffffffffff16021790555080600160006101000a81548173ffffffffffffffffffffffffffffffffffffffff021916908373ffffffffffffffffffffffffffffffffffffffff1602179055505061154d806100d26000396000f3fe608060405234801561001057600080fd5b506004361061007d5760003560e01c8063850381861161005b578063850381861461027c578063abb76afa14610383578063bfc5d4d0146103df578063eb121a71146104e65761007d565b80632b7b90e91461008257806352f762f6146101c157806379f7992e14610220575b600080fd5b6100c46004803603602081101561009857600080fd5b81019080803573ffffffffffffffffffffffffffffffffffffffff169060200190929190505050610664565b6040518080602001851515151581526020018060200184151515158152602001838103835287818151815260200191508051906020019080838360005b8381101561011c578082015181840152602081019050610101565b50505050905090810190601f1680156101495780820380516001836020036101000a031916815260200191505b50838103825285818151815260200191508051906020019080838360005b83811015610182578082015181840152602081019050610167565b50505050905090810190601f1680156101af5780820380516001836020036101000a031916815260200191505b50965050505050505060405180910390f35b6101c961099a565b6040518080602001828103825283818151815260200191508051906020019060200280838360005b8381101561020c5780820151818401526020810190506101f1565b505050509050019250505060405180910390f35b6102626004803603602081101561023657600080fd5b81019080803573ffffffffffffffffffffffffffffffffffffffff169060200190929190505050610a28565b604051808215151515815260200191505060405180910390f35b6103696004803603608081101561029257600080fd5b8101908080359060200190929190803573ffffffffffffffffffffffffffffffffffffffff16906020019092919080359060200190929190803590602001906401000000008111156102e357600080fd5b8201836020820111156102f557600080fd5b8035906020019184600183028401116401000000008311171561031757600080fd5b91908080601f016020809104026020016040519081016040528093929190818152602001838380828437600081840152601f19601f820116905080830192505050505050509192919290505050610ba9565b604051808215151515815260200191505060405180910390f35b6103c56004803603602081101561039957600080fd5b81019080803573ffffffffffffffffffffffffffffffffffffffff169060200190929190505050610d41565b604051808215151515815260200191505060405180910390f35b6104cc600480360360808110156103f557600080fd5b8101908080359060200190929190803573ffffffffffffffffffffffffffffffffffffffff169060200190929190803590602001909291908035906020019064010000000081111561044657600080fd5b82018360208201111561045857600080fd5b8035906020019184600183028401116401000000008311171561047a57600080fd5b91908080601f016020809104026020016040519081016040528093929190818152602001838380828437600081840152601f19601f820116905080830192505050505050509192919290505050610f9b565b604051808215151515815260200191505060405180910390f35b610662600480360360808110156104fc57600080fd5b81019080803573ffffffffffffffffffffffffffffffffffffffff1690602001909291908035906020019064010000000081111561053957600080fd5b82018360208201111561054b57600080fd5b8035906020019184600183028401116401000000008311171561056d57600080fd5b91908080601f016020809104026020016040519081016040528093929190818152602001838380828437600081840152601f19601f820116905080830192505050505050509192919290803590602001906401000000008111156105d057600080fd5b8201836020820111156105e257600080fd5b8035906020019184600183028401116401000000008311171561060457600080fd5b91908080601f016020809104026020016040519081016040528093929190818152602001838380828437600081840152601f19601f82011690508083019250505050505050919291929080351515906020019092919050505061120b565b005b6060600060606000600260008673ffffffffffffffffffffffffffffffffffffffff1673ffffffffffffffffffffffffffffffffffffffff16815260200190815260200160002060010160009054906101000a900460ff161561072f576040517f08c379a000000000000000000000000000000000000000000000000000000000815260040180806020018281038252601f8152602001807f4173736f63696174656420697320616c72656164792064697361626c65642e0081525060200191505060405180910390fd5b600260008673ffffffffffffffffffffffffffffffffffffffff1673ffffffffffffffffffffffffffffffffffffffff168152602001908152602001600020600001600260008773ffffffffffffffffffffffffffffffffffffffff1673ffffffffffffffffffffffffffffffffffffffff16815260200190815260200160002060010160009054906101000a900460ff16600260008873ffffffffffffffffffffffffffffffffffffffff1673ffffffffffffffffffffffffffffffffffffffff168152602001908152602001600020600201600260008973ffffffffffffffffffffffffffffffffffffffff1673ffffffffffffffffffffffffffffffffffffffff16815260200190815260200160002060030160009054906101000a900460ff16838054600181600116156101000203166002900480601f0160208091040260200160405190810160405280929190818152602001828054600181600116156101000203166002900480156108e85780601f106108bd576101008083540402835291602001916108e8565b820191906000526020600020905b8154815290600101906020018083116108cb57829003601f168201915b50505050509350818054600181600116156101000203166002900480601f0160208091040260200160405190810160405280929190818152602001828054600181600116156101000203166002900480156109845780601f1061095957610100808354040283529160200191610984565b820191906000526020600020905b81548152906001019060200180831161096757829003601f168201915b5050505050915093509350935093509193509193565b60606003805480602002602001604051908101604052809291908181526020018280548015610a1e57602002820191906000526020600020905b8160009054906101000a900473ffffffffffffffffffffffffffffffffffffffff1673ffffffffffffffffffffffffffffffffffffffff16815260200190600101908083116109d4575b5050505050905090565b60003373ffffffffffffffffffffffffffffffffffffffff166000809054906101000a900473ffffffffffffffffffffffffffffffffffffffff1673ffffffffffffffffffffffffffffffffffffffff1614610a8357600080fd5b600260008373ffffffffffffffffffffffffffffffffffffffff1673ffffffffffffffffffffffffffffffffffffffff16815260200190815260200160002060010160009054906101000a900460ff16610b45576040517f08c379a000000000000000000000000000000000000000000000000000000000815260040180806020018281038252601e8152602001807f4173736f63696174656420697320616c726561647920656e61626c65642e000081525060200191505060405180910390fd5b6001600260008473ffffffffffffffffffffffffffffffffffffffff1673ffffffffffffffffffffffffffffffffffffffff16815260200190815260200160002060010160006101000a81548160ff02191690831515021790555060019050919050565b6000600260008573ffffffffffffffffffffffffffffffffffffffff1673ffffffffffffffffffffffffffffffffffffffff16815260200190815260200160002060030160009054906101000a900460ff168015610c535750600260008573ffffffffffffffffffffffffffffffffffffffff1673ffffffffffffffffffffffffffffffffffffffff16815260200190815260200160002060010160009054906101000a900460ff165b15610d34578373ffffffffffffffffffffffffffffffffffffffff163373ffffffffffffffffffffffffffffffffffffffff16867f657ad2f6ee451f7c8f6c2b25b440c85647fb34aa4e034d000fc9f26cbb47862386866040518083815260200180602001828103825283818151815260200191508051906020019080838360005b83811015610cf0578082015181840152602081019050610cd5565b50505050905090810190601f168015610d1d5780820380516001836020036101000a031916815260200191505b50935050505060405180910390a460019050610d39565b600090505b949350505050565b60003373ffffffffffffffffffffffffffffffffffffffff166000809054906101000a900473ffffffffffffffffffffffffffffffffffffffff1673ffffffffffffffffffffffffffffffffffffffff1614610d9c57600080fd5b600260008373ffffffffffffffffffffffffffffffffffffffff1673ffffffffffffffffffffffffffffffffffffffff16815260200190815260200160002060010160009054906101000a900460ff1615610e5f576040517f08c379a000000000000000000000000000000000000000000000000000000000815260040180806020018281038252601f8152602001807f4173736f63696174656420697320616c72656164792064697361626c65642e0081525060200191505060405180910390fd5b6000600260008473ffffffffffffffffffffffffffffffffffffffff1673ffffffffffffffffffffffffffffffffffffffff16815260200190815260200160002060010160006101000a81548160ff021916908315150217905550600260008373ffffffffffffffffffffffffffffffffffffffff1673ffffffffffffffffffffffffffffffffffffffff16815260200190815260200160002060030160009054906101000a900460ff1615610f9257600160009054906101000a900473ffffffffffffffffffffffffffffffffffffffff1673ffffffffffffffffffffffffffffffffffffffff1663986502756040518163ffffffff1660e01b8152600401600060405180830381600087803b158015610f7957600080fd5b505af1158015610f8d573d6000803e3d6000fd5b505050505b60019050919050565b6000600260008573ffffffffffffffffffffffffffffffffffffffff1673ffffffffffffffffffffffffffffffffffffffff16815260200190815260200160002060030160009054906101000a900460ff1680156110455750600260008573ffffffffffffffffffffffffffffffffffffffff1673ffffffffffffffffffffffffffffffffffffffff16815260200190815260200160002060010160009054906101000a900460ff165b1561120357600160009054906101000a900473ffffffffffffffffffffffffffffffffffffffff1673ffffffffffffffffffffffffffffffffffffffff1663095ea7b385856040518363ffffffff1660e01b8152600401808373ffffffffffffffffffffffffffffffffffffffff1673ffffffffffffffffffffffffffffffffffffffff16815260200182815260200192505050602060405180830381600087803b1580156110f357600080fd5b505af1158015611107573d6000803e3d6000fd5b505050506040513d602081101561111d57600080fd5b8101908080519060200190929190505050508373ffffffffffffffffffffffffffffffffffffffff163373ffffffffffffffffffffffffffffffffffffffff16867ff491baa1c5ddc7494aa09817429f810e2d3db75ea19682cef4e2c9ab7bf4feab86866040518083815260200180602001828103825283818151815260200191508051906020019080838360005b838110156111c75780820151818401526020810190506111ac565b50505050905090810190601f1680156111f45780820380516001836020036101000a031916815260200191505b50935050505060405180910390a45b949350505050565b3373ffffffffffffffffffffffffffffffffffffffff166000809054906101000a900473ffffffffffffffffffffffffffffffffffffffff1673ffffffffffffffffffffffffffffffffffffffff161461126457600080fd5b600260008573ffffffffffffffffffffffffffffffffffffffff1673ffffffffffffffffffffffffffffffffffffffff16815260200190815260200160002060010160009054906101000a900460ff16156112be57600080fd5b6000600260008673ffffffffffffffffffffffffffffffffffffffff1673ffffffffffffffffffffffffffffffffffffffff16815260200190815260200160002090508381600001908051906020019061131992919061147c565b508281600201908051906020019061133292919061147c565b50818160030160006101000a81548160ff02191690831515021790555060038590806001815401808255809150509060018203906000526020600020016000909192909190916101000a81548173ffffffffffffffffffffffffffffffffffffffff021916908373ffffffffffffffffffffffffffffffffffffffff16021790555050811561147557600160009054906101000a900473ffffffffffffffffffffffffffffffffffffffff1673ffffffffffffffffffffffffffffffffffffffff1663983b2d56866040518263ffffffff1660e01b8152600401808273ffffffffffffffffffffffffffffffffffffffff1673ffffffffffffffffffffffffffffffffffffffff168152602001915050600060405180830381600087803b15801561145c57600080fd5b505af1158015611470573d6000803e3d6000fd5b505050505b5050505050565b828054600181600116156101000203166002900490600052602060002090601f016020900481019282601f106114bd57805160ff19168380011785556114eb565b828001600101855582156114eb579182015b828111156114ea5782518255916020019190600101906114cf565b5b5090506114f891906114fc565b5090565b61151e91905b8082111561151a576000816000905550600101611502565b5090565b9056fea165627a7a7230582035cd040e8e5d98e6cbfce4f7f339df58e3d0722cf26fedddd54ae857147740160029",
  "source": "pragma solidity ^0.5.1;\n\nimport \"./RCC.sol\";\n\n// Contrato de gestión de la moneda de Reciclaje: ReCycling Coin: RCC\ncontract RccDao {\n\n    // Evento para llevar a cabo una petición de RCC a las cuentas asociadas.\n    event Ask(\n        uint indexed  id,\n        address indexed  ask_address,\n        address indexed  associatted_address,\n        uint amount,\n        string message\n    );\n\n    // Evento para llevar el control de las peticiones aprovadas por parte de las cuentas asociadas.\n    event Approve(\n        uint indexed  id,\n        address indexed  ask_address,\n        address indexed  associatted_address,\n        uint amount,\n        string message\n    );\n\n    address owner;\n\n    // Contrato de tipo RCC\n    RCC rcc;\n    \n    // En el contructor se proporciona el acceso al contrato de RCC que mantiene las cuentas de usuarios de RCC a través de la clase abstracta ERC20 de OpenZeppeling\n    constructor(address rcc_address) public {\n        owner = msg.sender;\n        rcc = RCC(rcc_address);             \n    }\n\n    \n    \n    modifier onlyOwner {\n        require(owner == msg.sender);\n        _;\n    }\n    \n    // Estructura con la información de cada cuenta asociada\n    struct Associated {\n        string name;\n        bool enabled;\n        string ref ;    \n        bool minter;\n    }    \n    \n \n    // Cada Asociado tiene su dirección con la que opera sobre el contrato\n    mapping (address => Associated) _associated;\n\n    \n    // Lista completa de asociados.\n    address[] internal _associatedList;\n        \n\n    // Método para dar de alta una cuenta asociada. Solo el propietario del contrato podrá invocarlo\n    function newAssociated(address _address, string memory name, string memory ref, bool minter) onlyOwner public {\n    \n        // Primero hay que comprobar que el assoiciado ya existe\n        if(_associated[_address].enabled) revert(); \n        \n        \n        //Creamos un nuevo asociado\n        Associated storage associated = _associated[_address];                 \n        associated.name = name;\n        associated.ref = ref;\n        associated.minter = minter;        \n        \n        // Se añade el asociado a la tabla de asociados\n        _associatedList.push(_address);\n        \n        // Se añade como Minter al nuevo asociado\n        \n        if (minter){\n            rcc.addMinter(_address);            \n        }\n        \n        \n    }\n    \n    //Método para desactivar una cuenta de Asociado. El Propietario del contrato es el único que puede activar o desactivar\n    function disableAssociated(address _address) onlyOwner public returns (bool) {\n        \n        require(!_associated[_address].enabled, \"Associated is already disabled.\");\n        _associated[_address].enabled = false;\n        \n        // Se elimina la propiedad de Minter al asociado\n        if (_associated[_address].minter){\n            rcc.renounceMinter();\n        }\n         \n        return true;\n    }\n    // Método para volver a activar una cuenta de Asociado. El Propietario del contrato es el único que puede activar o desactivar\n    function enabledAssociated(address _address) onlyOwner public returns (bool) {\n        \n        require(_associated[_address].enabled, \"Associated is already enabled.\");\n        _associated[_address].enabled = true;\n         \n        return true;\n    }\n    \n    // Método de lectura de la lista de cuentas asociadas\n    function getAssociatedList() view public returns (address[] memory) {\n        return _associatedList;\n    }\n    \n    // Método para obtener la información de una cuenta asociada.\n    function getAssociated(address _address ) view public returns (string memory name, bool enabled, string memory ref, bool minter) {\n        require(!_associated[_address].enabled, \"Associated is already disabled.\");\n        return (_associated[_address].name, _associated[_address].enabled, _associated[_address].ref, _associated[_address].minter);\n    }\n    \n    // Método de petición de una cantidad de moneda RCC. Solo podrá pedirse a las Cuentas Asociadas de tipo minter\n    function ask(uint id, address _address, uint amount, string memory message ) public returns (bool) {        \n        //emit Ask(id, msg.sender, _address, amount, message);                \n        if (_associated[_address].minter && _associated[_address].enabled){\n            emit Ask(id, msg.sender, _address, amount, message);\n            return true;\n        }\n        else{\n            return false;\n        }        \n\n    }\n\n    // Método para controlar si una petición de moneda RCC se ha llevado a cabo.\n    function approve(uint id, address _address, uint amount, string memory message ) public returns (bool) {\n        if (_associated[_address].minter && _associated[_address].enabled){         \n            rcc.approve(_address, amount);\n            emit Approve(id, msg.sender, _address, amount, message);\n        }\n    }\n    \n}",
  "sourcePath": "/home/cesar/master/master-rcc/truffle/contracts/RccDao.sol",
  "compiler": {
    "name": "solc",
    "version": "0.5.8+commit.23d335f2.Emscripten.clang"
  },
  "schemaVersion": "3.0.13",
  "updatedAt": "2019-09-26T22:19:17.788Z",
  "devdoc": {
    "methods": {}
  },
  "userdoc": {
    "methods": {}
  }
}