{
  "contractName": "RccDao",
  "abi": [
    {
      "inputs": [
        {
          "name": "rcc_address",
          "type": "address"
        }
      ],
      "payable": false,
      "stateMutability": "nonpayable",
      "type": "constructor"
    },
    {
      "anonymous": false,
      "inputs": [
        {
          "indexed": true,
          "name": "id",
          "type": "uint256"
        },
        {
          "indexed": true,
          "name": "ask_address",
          "type": "address"
        },
        {
          "indexed": true,
          "name": "associatted_address",
          "type": "address"
        },
        {
          "indexed": false,
          "name": "amount",
          "type": "uint256"
        },
        {
          "indexed": false,
          "name": "message",
          "type": "string"
        }
      ],
      "name": "Ask",
      "type": "event"
    },
    {
      "anonymous": false,
      "inputs": [
        {
          "indexed": true,
          "name": "id",
          "type": "uint256"
        },
        {
          "indexed": true,
          "name": "ask_address",
          "type": "address"
        },
        {
          "indexed": true,
          "name": "associatted_address",
          "type": "address"
        },
        {
          "indexed": false,
          "name": "amount",
          "type": "uint256"
        },
        {
          "indexed": false,
          "name": "message",
          "type": "string"
        }
      ],
      "name": "Approve",
      "type": "event"
    },
    {
      "constant": false,
      "inputs": [
        {
          "name": "_address",
          "type": "address"
        },
        {
          "name": "name",
          "type": "string"
        },
        {
          "name": "ref",
          "type": "string"
        },
        {
          "name": "minter",
          "type": "bool"
        }
      ],
      "name": "newAssociated",
      "outputs": [],
      "payable": false,
      "stateMutability": "nonpayable",
      "type": "function"
    },
    {
      "constant": false,
      "inputs": [
        {
          "name": "_address",
          "type": "address"
        }
      ],
      "name": "disableAssociated",
      "outputs": [
        {
          "name": "",
          "type": "bool"
        }
      ],
      "payable": false,
      "stateMutability": "nonpayable",
      "type": "function"
    },
    {
      "constant": false,
      "inputs": [
        {
          "name": "_address",
          "type": "address"
        }
      ],
      "name": "enableAssociated",
      "outputs": [
        {
          "name": "",
          "type": "bool"
        }
      ],
      "payable": false,
      "stateMutability": "nonpayable",
      "type": "function"
    },
    {
      "constant": true,
      "inputs": [],
      "name": "getAssociatedList",
      "outputs": [
        {
          "name": "",
          "type": "address[]"
        }
      ],
      "payable": false,
      "stateMutability": "view",
      "type": "function"
    },
    {
      "constant": true,
      "inputs": [
        {
          "name": "_address",
          "type": "address"
        }
      ],
      "name": "getAssociated",
      "outputs": [
        {
          "name": "name",
          "type": "string"
        },
        {
          "name": "enable",
          "type": "bool"
        },
        {
          "name": "ref",
          "type": "string"
        },
        {
          "name": "minter",
          "type": "bool"
        }
      ],
      "payable": false,
      "stateMutability": "view",
      "type": "function"
    },
    {
      "constant": false,
      "inputs": [
        {
          "name": "_address",
          "type": "address"
        },
        {
          "name": "amount",
          "type": "uint256"
        },
        {
          "name": "message",
          "type": "string"
        }
      ],
      "name": "ask",
      "outputs": [
        {
          "name": "",
          "type": "bool"
        }
      ],
      "payable": false,
      "stateMutability": "nonpayable",
      "type": "function"
    },
    {
      "constant": false,
      "inputs": [
        {
          "name": "id",
          "type": "uint256"
        },
        {
          "name": "_address",
          "type": "address"
        },
        {
          "name": "amount",
          "type": "uint256"
        },
        {
          "name": "message",
          "type": "string"
        }
      ],
      "name": "approve",
      "outputs": [
        {
          "name": "",
          "type": "bool"
        }
      ],
      "payable": false,
      "stateMutability": "nonpayable",
      "type": "function"
    }
  ],
  "bytecode": "0x608060405234801561001057600080fd5b506040516020806115988339810180604052602081101561003057600080fd5b81019080805190602001909291905050506000600281905550336000806101000a81548173ffffffffffffffffffffffffffffffffffffffff021916908373ffffffffffffffffffffffffffffffffffffffff16021790555080600160006101000a81548173ffffffffffffffffffffffffffffffffffffffff021916908373ffffffffffffffffffffffffffffffffffffffff160217905550506114be806100da6000396000f3fe608060405234801561001057600080fd5b506004361061007d5760003560e01c8063b34dded41161005b578063b34dded41461027c578063bfc5d4d014610379578063cbacdfef14610480578063eb121a71146104dc5761007d565b80632b7b90e91461008257806352f762f6146101c1578063abb76afa14610220575b600080fd5b6100c46004803603602081101561009857600080fd5b81019080803573ffffffffffffffffffffffffffffffffffffffff16906020019092919050505061065a565b6040518080602001851515151581526020018060200184151515158152602001838103835287818151815260200191508051906020019080838360005b8381101561011c578082015181840152602081019050610101565b50505050905090810190601f1680156101495780820380516001836020036101000a031916815260200191505b50838103825285818151815260200191508051906020019080838360005b83811015610182578082015181840152602081019050610167565b50505050905090810190601f1680156101af5780820380516001836020036101000a031916815260200191505b50965050505050505060405180910390f35b6101c96108cd565b6040518080602001828103825283818151815260200191508051906020019060200280838360005b8381101561020c5780820151818401526020810190506101f1565b505050509050019250505060405180910390f35b6102626004803603602081101561023657600080fd5b81019080803573ffffffffffffffffffffffffffffffffffffffff16906020019092919050505061095b565b604051808215151515815260200191505060405180910390f35b61035f6004803603606081101561029257600080fd5b81019080803573ffffffffffffffffffffffffffffffffffffffff16906020019092919080359060200190929190803590602001906401000000008111156102d957600080fd5b8201836020820111156102eb57600080fd5b8035906020019184600183028401116401000000008311171561030d57600080fd5b91908080601f016020809104026020016040519081016040528093929190818152602001838380828437600081840152601f19601f820116905080830192505050505050509192919290505050610bb5565b604051808215151515815260200191505060405180910390f35b6104666004803603608081101561038f57600080fd5b8101908080359060200190929190803573ffffffffffffffffffffffffffffffffffffffff16906020019092919080359060200190929190803590602001906401000000008111156103e057600080fd5b8201836020820111156103f257600080fd5b8035906020019184600183028401116401000000008311171561041457600080fd5b91908080601f016020809104026020016040519081016040528093929190818152602001838380828437600081840152601f19601f820116905080830192505050505050509192919290505050610d5a565b604051808215151515815260200191505060405180910390f35b6104c26004803603602081101561049657600080fd5b81019080803573ffffffffffffffffffffffffffffffffffffffff169060200190929190505050610fd7565b604051808215151515815260200191505060405180910390f35b610658600480360360808110156104f257600080fd5b81019080803573ffffffffffffffffffffffffffffffffffffffff1690602001909291908035906020019064010000000081111561052f57600080fd5b82018360208201111561054157600080fd5b8035906020019184600183028401116401000000008311171561056357600080fd5b91908080601f016020809104026020016040519081016040528093929190818152602001838380828437600081840152601f19601f820116905080830192505050505050509192919290803590602001906401000000008111156105c657600080fd5b8201836020820111156105d857600080fd5b803590602001918460018302840111640100000000831117156105fa57600080fd5b91908080601f016020809104026020016040519081016040528093929190818152602001838380828437600081840152601f19601f820116905080830192505050505050509192919290803515159060200190929190505050611158565b005b6060600060606000600360008673ffffffffffffffffffffffffffffffffffffffff1673ffffffffffffffffffffffffffffffffffffffff168152602001908152602001600020600001600360008773ffffffffffffffffffffffffffffffffffffffff1673ffffffffffffffffffffffffffffffffffffffff16815260200190815260200160002060010160009054906101000a900460ff16600360008873ffffffffffffffffffffffffffffffffffffffff1673ffffffffffffffffffffffffffffffffffffffff168152602001908152602001600020600201600360008973ffffffffffffffffffffffffffffffffffffffff1673ffffffffffffffffffffffffffffffffffffffff16815260200190815260200160002060030160009054906101000a900460ff16838054600181600116156101000203166002900480601f01602080910402602001604051908101604052809291908181526020018280546001816001161561010002031660029004801561081b5780601f106107f05761010080835404028352916020019161081b565b820191906000526020600020905b8154815290600101906020018083116107fe57829003601f168201915b50505050509350818054600181600116156101000203166002900480601f0160208091040260200160405190810160405280929190818152602001828054600181600116156101000203166002900480156108b75780601f1061088c576101008083540402835291602001916108b7565b820191906000526020600020905b81548152906001019060200180831161089a57829003601f168201915b5050505050915093509350935093509193509193565b6060600480548060200260200160405190810160405280929190818152602001828054801561095157602002820191906000526020600020905b8160009054906101000a900473ffffffffffffffffffffffffffffffffffffffff1673ffffffffffffffffffffffffffffffffffffffff1681526020019060010190808311610907575b5050505050905090565b60003373ffffffffffffffffffffffffffffffffffffffff166000809054906101000a900473ffffffffffffffffffffffffffffffffffffffff1673ffffffffffffffffffffffffffffffffffffffff16146109b657600080fd5b600360008373ffffffffffffffffffffffffffffffffffffffff1673ffffffffffffffffffffffffffffffffffffffff16815260200190815260200160002060010160009054906101000a900460ff1615610a79576040517f08c379a000000000000000000000000000000000000000000000000000000000815260040180806020018281038252601f8152602001807f4173736f63696174656420697320616c72656164792064697361626c65642e0081525060200191505060405180910390fd5b6000600360008473ffffffffffffffffffffffffffffffffffffffff1673ffffffffffffffffffffffffffffffffffffffff16815260200190815260200160002060010160006101000a81548160ff021916908315150217905550600360008373ffffffffffffffffffffffffffffffffffffffff1673ffffffffffffffffffffffffffffffffffffffff16815260200190815260200160002060030160009054906101000a900460ff1615610bac57600160009054906101000a900473ffffffffffffffffffffffffffffffffffffffff1673ffffffffffffffffffffffffffffffffffffffff1663986502756040518163ffffffff1660e01b8152600401600060405180830381600087803b158015610b9357600080fd5b505af1158015610ba7573d6000803e3d6000fd5b505050505b60019050919050565b6000600360008573ffffffffffffffffffffffffffffffffffffffff1673ffffffffffffffffffffffffffffffffffffffff16815260200190815260200160002060030160009054906101000a900460ff168015610c5f5750600360008573ffffffffffffffffffffffffffffffffffffffff1673ffffffffffffffffffffffffffffffffffffffff16815260200190815260200160002060010160009054906101000a900460ff165b15610d4e576001600254016002819055508373ffffffffffffffffffffffffffffffffffffffff163373ffffffffffffffffffffffffffffffffffffffff166002547f657ad2f6ee451f7c8f6c2b25b440c85647fb34aa4e034d000fc9f26cbb47862386866040518083815260200180602001828103825283818151815260200191508051906020019080838360005b83811015610d0a578082015181840152602081019050610cef565b50505050905090810190601f168015610d375780820380516001836020036101000a031916815260200191505b50935050505060405180910390a460019050610d53565b600090505b9392505050565b6000600360003373ffffffffffffffffffffffffffffffffffffffff1673ffffffffffffffffffffffffffffffffffffffff16815260200190815260200160002060030160009054906101000a900460ff168015610e045750600360003373ffffffffffffffffffffffffffffffffffffffff1673ffffffffffffffffffffffffffffffffffffffff16815260200190815260200160002060010160009054906101000a900460ff165b15610fca57600160009054906101000a900473ffffffffffffffffffffffffffffffffffffffff1673ffffffffffffffffffffffffffffffffffffffff1663095ea7b385856040518363ffffffff1660e01b8152600401808373ffffffffffffffffffffffffffffffffffffffff1673ffffffffffffffffffffffffffffffffffffffff16815260200182815260200192505050602060405180830381600087803b158015610eb257600080fd5b505af1158015610ec6573d6000803e3d6000fd5b505050506040513d6020811015610edc57600080fd5b8101908080519060200190929190505050503373ffffffffffffffffffffffffffffffffffffffff168473ffffffffffffffffffffffffffffffffffffffff16867ff491baa1c5ddc7494aa09817429f810e2d3db75ea19682cef4e2c9ab7bf4feab86866040518083815260200180602001828103825283818151815260200191508051906020019080838360005b83811015610f86578082015181840152602081019050610f6b565b50505050905090810190601f168015610fb35780820380516001836020036101000a031916815260200191505b50935050505060405180910390a460019050610fcf565b600090505b949350505050565b60003373ffffffffffffffffffffffffffffffffffffffff166000809054906101000a900473ffffffffffffffffffffffffffffffffffffffff1673ffffffffffffffffffffffffffffffffffffffff161461103257600080fd5b600360008373ffffffffffffffffffffffffffffffffffffffff1673ffffffffffffffffffffffffffffffffffffffff16815260200190815260200160002060010160009054906101000a900460ff166110f4576040517f08c379a000000000000000000000000000000000000000000000000000000000815260040180806020018281038252601e8152602001807f4173736f63696174656420697320616c726561647920656e61626c65642e000081525060200191505060405180910390fd5b6001600360008473ffffffffffffffffffffffffffffffffffffffff1673ffffffffffffffffffffffffffffffffffffffff16815260200190815260200160002060010160006101000a81548160ff02191690831515021790555060019050919050565b3373ffffffffffffffffffffffffffffffffffffffff166000809054906101000a900473ffffffffffffffffffffffffffffffffffffffff1673ffffffffffffffffffffffffffffffffffffffff16146111b157600080fd5b60011515600360008673ffffffffffffffffffffffffffffffffffffffff1673ffffffffffffffffffffffffffffffffffffffff16815260200190815260200160002060010160009054906101000a900460ff161515141561121257600080fd5b6000600360008673ffffffffffffffffffffffffffffffffffffffff1673ffffffffffffffffffffffffffffffffffffffff16815260200190815260200160002090508381600001908051906020019061126d9291906113ed565b50828160020190805190602001906112869291906113ed565b50818160030160006101000a81548160ff02191690831515021790555060018160010160006101000a81548160ff02191690831515021790555060048590806001815401808255809150509060018203906000526020600020016000909192909190916101000a81548173ffffffffffffffffffffffffffffffffffffffff021916908373ffffffffffffffffffffffffffffffffffffffff1602179055505081156113e657600160009054906101000a900473ffffffffffffffffffffffffffffffffffffffff1673ffffffffffffffffffffffffffffffffffffffff1663983b2d56866040518263ffffffff1660e01b8152600401808273ffffffffffffffffffffffffffffffffffffffff1673ffffffffffffffffffffffffffffffffffffffff168152602001915050600060405180830381600087803b1580156113cd57600080fd5b505af11580156113e1573d6000803e3d6000fd5b505050505b5050505050565b828054600181600116156101000203166002900490600052602060002090601f016020900481019282601f1061142e57805160ff191683800117855561145c565b8280016001018555821561145c579182015b8281111561145b578251825591602001919060010190611440565b5b509050611469919061146d565b5090565b61148f91905b8082111561148b576000816000905550600101611473565b5090565b9056fea165627a7a72305820e4a4099b57746e920cb8a9f49d211a258774f9aeedae3b68cceb9565f6e761300029",
  "source": "pragma solidity ^0.5.1;\n\nimport \"./RCC.sol\";\n\n// Contrato de gestión de la moneda de Reciclaje: ReCycling Coin: RCC\ncontract RccDao {\n    \n    // Evento para llevar a cabo una petición de RCC a las cuentas asociadas.\n    event Ask(\n        uint indexed  id,\n        address indexed  ask_address,\n        address indexed  associatted_address,\n        uint amount,\n        string message\n    );\n\n    // Evento para llevar el control de las peticiones aprovadas por parte de las cuentas asociadas.\n    event Approve(\n        uint indexed  id,\n        address indexed  ask_address,\n        address indexed  associatted_address,\n        uint amount,\n        string message\n    );\n\n    address owner;\n\n    // Contrato de tipo RCC\n    RCC rcc;\n\n    uint counter;\n    \n    // En el contructor se proporciona el acceso al contrato de RCC que mantiene las cuentas de usuarios de RCC a través de la clase abstracta ERC20 de OpenZeppeling\n    constructor(address rcc_address) public {\n        counter = 0;\n        owner = msg.sender;\n        rcc = RCC(rcc_address);\n    }\n\n    \n    \n    modifier onlyOwner {\n        require(owner == msg.sender);\n        _;\n    }\n    \n    // Estructura con la información de cada cuenta asociada\n    struct Associated {\n        string name;\n        bool enable;\n        string ref ;\n        bool minter;\n    }\n    \n \n    // Cada Asociado tiene su dirección con la que opera sobre el contrato\n    mapping (address => Associated) _associated;\n\n    \n    // Lista completa de asociados.\n    address[] internal _associatedList;\n        \n\n    // Método para dar de alta una cuenta asociada. Solo el propietario del contrato podrá invocarlo\n    function newAssociated(address _address, string memory name, string memory ref, bool minter) onlyOwner public {\n    \n        // Primero hay que comprobar que el assoiciado ya existe\n        if(_associated[_address].enable == true) revert();\n        \n        //Creamos un nuevo asociado\n        Associated storage associated = _associated[_address];\n        associated.name = name;\n        associated.ref = ref;\n        associated.minter = minter;\n        associated.enable = true;\n        \n        // Se añade el asociado a la tabla de asociados\n        _associatedList.push(_address);\n        \n        // Se añade como Minter al nuevo asociado\n        \n        if (minter){\n            rcc.addMinter(_address);\n        }\n        \n        \n    }\n    \n    //Método para desactivar una cuenta de Asociado. El Propietario del contrato es el único que puede activar o desactivar\n    function disableAssociated(address _address) onlyOwner public returns (bool) {\n        \n        require(!_associated[_address].enable, \"Associated is already disabled.\");\n        _associated[_address].enable = false;\n        \n        // Se elimina la propiedad de Minter al asociado\n        if (_associated[_address].minter){\n            rcc.renounceMinter();\n        }\n         \n        return true;\n    }\n    // Método para volver a activar una cuenta de Asociado. El Propietario del contrato es el único que puede activar o desactivar\n    function enableAssociated(address _address) onlyOwner public returns (bool) {\n        \n        require(_associated[_address].enable, \"Associated is already enabled.\");\n        _associated[_address].enable = true;\n         \n        return true;\n    }\n    \n    // Método de lectura de la lista de cuentas asociadas\n    function getAssociatedList() view public returns (address[] memory) {\n        return _associatedList;\n    }\n    \n    // Método para obtener la información de una cuenta asociada.\n    function getAssociated(address _address ) view public returns (string memory name, bool enable, string memory ref, bool minter) {\n        //require(!_associated[_address].enable, \"Associated is already disabled.\");\n        return (_associated[_address].name, _associated[_address].enable, _associated[_address].ref, _associated[_address].minter);\n    }\n    \n    // Método de petición de una cantidad de moneda RCC. Solo podrá pedirse a las Cuentas Asociadas de tipo minter\n    function ask(address _address, uint amount, string memory message ) public returns (bool) {\n        \n        if (_associated[_address].minter && _associated[_address].enable){\n            counter = counter + 1;\n            emit Ask(counter, msg.sender, _address, amount, message);\n            return true;\n        }\n        else{\n            return false;\n        }\n\n    }\n\n    // Método para controlar si una petición de moneda RCC se ha llevado a cabo.\n    function approve(uint id, address _address, uint amount, string memory message ) public returns (bool) {\n        if (_associated[msg.sender].minter && _associated[msg.sender].enable){\n            rcc.approve(_address, amount);\n            emit Approve(id, _address, msg.sender, amount, message);\n            return true;\n        }\n        else{\n            return false;\n        }\n    }\n    \n}",
  "sourcePath": "/home/cesar/master/master-rcc/truffle/contracts/RccDao.sol",
  "compiler": {
    "name": "solc",
    "version": "0.5.8+commit.23d335f2.Emscripten.clang"
  },
  "schemaVersion": "3.0.13",
  "updatedAt": "2019-09-28T07:17:55.073Z",
  "devdoc": {
    "methods": {}
  },
  "userdoc": {
    "methods": {}
  }
}