{
  "contractName": "TestRCC",
  "abi": [
    {
      "inputs": [],
      "payable": false,
      "stateMutability": "nonpayable",
      "type": "constructor"
    },
    {
      "anonymous": false,
      "inputs": [
        {
          "indexed": true,
          "name": "id",
          "type": "uint256"
        },
        {
          "indexed": true,
          "name": "ask_address",
          "type": "address"
        },
        {
          "indexed": true,
          "name": "associatted_address",
          "type": "address"
        },
        {
          "indexed": false,
          "name": "amount",
          "type": "uint256"
        },
        {
          "indexed": false,
          "name": "message",
          "type": "string"
        }
      ],
      "name": "Ask",
      "type": "event"
    },
    {
      "constant": true,
      "inputs": [],
      "name": "getOwner",
      "outputs": [
        {
          "name": "",
          "type": "address"
        }
      ],
      "payable": false,
      "stateMutability": "view",
      "type": "function"
    },
    {
      "constant": false,
      "inputs": [
        {
          "name": "id",
          "type": "uint256"
        },
        {
          "name": "_address",
          "type": "address"
        },
        {
          "name": "amount",
          "type": "uint256"
        },
        {
          "name": "message",
          "type": "string"
        }
      ],
      "name": "ask",
      "outputs": [
        {
          "name": "",
          "type": "bool"
        }
      ],
      "payable": false,
      "stateMutability": "nonpayable",
      "type": "function"
    }
  ],
  "bytecode": "0x608060405234801561001057600080fd5b50336000806101000a81548173ffffffffffffffffffffffffffffffffffffffff021916908373ffffffffffffffffffffffffffffffffffffffff1602179055506102c2806100606000396000f3fe608060405234801561001057600080fd5b50600436106100365760003560e01c8063850381861461003b578063893d20e814610142575b600080fd5b6101286004803603608081101561005157600080fd5b8101908080359060200190929190803573ffffffffffffffffffffffffffffffffffffffff16906020019092919080359060200190929190803590602001906401000000008111156100a257600080fd5b8201836020820111156100b457600080fd5b803590602001918460018302840111640100000000831117156100d657600080fd5b91908080601f016020809104026020016040519081016040528093929190818152602001838380828437600081840152601f19601f82011690508083019250505050505050919291929050505061018c565b604051808215151515815260200191505060405180910390f35b61014a61026d565b604051808273ffffffffffffffffffffffffffffffffffffffff1673ffffffffffffffffffffffffffffffffffffffff16815260200191505060405180910390f35b60008373ffffffffffffffffffffffffffffffffffffffff163373ffffffffffffffffffffffffffffffffffffffff16867f657ad2f6ee451f7c8f6c2b25b440c85647fb34aa4e034d000fc9f26cbb47862386866040518083815260200180602001828103825283818151815260200191508051906020019080838360005b8381101561022657808201518184015260208101905061020b565b50505050905090810190601f1680156102535780820380516001836020036101000a031916815260200191505b50935050505060405180910390a460019050949350505050565b60008060009054906101000a900473ffffffffffffffffffffffffffffffffffffffff1690509056fea165627a7a7230582028a23e59b75410ae9fe6b9475f0c146591dbffede6bfa4fed4984039d683bb1e0029",
  "source": "pragma solidity ^0.5.1;\n\n\n// Contrato de gestión de la moneda de Reciclaje: ReCycling Coin: RCC\ncontract TestRCC {\n\n    // Evento para llevar a cabo una petición de RCC a las cuentas asociadas.\n    event Ask(\n        uint indexed id,\n        address indexed  ask_address,\n        address indexed  associatted_address,\n        uint amount,\n        string message\n    );\n\n    \n    address owner;\n   \n    \n    // En el contructor se proporciona el acceso al contrato de RCC que mantiene las cuentas de usuarios de RCC a través de la clase abstracta ERC20 de OpenZeppeling\n    constructor() public {\n        owner = msg.sender;       \n    }\n\n    \n    \n    modifier onlyOwner {\n        require(owner == msg.sender);\n        _;\n    }\n    \n    // Estructura con la información de cada cuenta asociada\n    struct Associated {\n        string name;\n        bool enabled;\n        string ref ;    \n        bool minter;\n    }    \n    \n \n    // Cada Asociado tiene su dirección con la que opera sobre el contrato\n    mapping (address => Associated) _associated;\n\n    \n    // Lista completa de asociados.\n    address[] internal _associatedList;\n        \n\n    function getOwner() view public returns (address){\n        return owner;\n    }\n            \n    // Método de petición de una cantidad de moneda RCC. Solo podrá pedirse a las Cuentas Asociadas de tipo minter\n    function ask(uint id, address _address, uint amount, string memory message) public returns (bool) {               \n        emit Ask(id, msg.sender, _address, amount, message);     \n        return true;\n    }\n    \n}",
  "sourcePath": "/home/cesar/master/master-rcc/truffle/contracts/TestRCC.sol",
  "compiler": {
    "name": "solc",
    "version": "0.5.8+commit.23d335f2.Emscripten.clang"
  },
  "schemaVersion": "3.0.13",
  "updatedAt": "2019-09-28T07:18:25.240Z",
  "devdoc": {
    "methods": {}
  },
  "userdoc": {
    "methods": {}
  }
}