{
  "contractName": "RccDao",
  "abi": [
    {
      "inputs": [
        {
          "name": "rcc_address",
          "type": "address"
        }
      ],
      "payable": false,
      "stateMutability": "nonpayable",
      "type": "constructor"
    },
    {
      "anonymous": false,
      "inputs": [
        {
          "indexed": true,
          "name": "id",
          "type": "uint256"
        },
        {
          "indexed": true,
          "name": "ask_address",
          "type": "address"
        },
        {
          "indexed": true,
          "name": "associatted_address",
          "type": "address"
        },
        {
          "indexed": false,
          "name": "amount",
          "type": "uint256"
        },
        {
          "indexed": false,
          "name": "message",
          "type": "string"
        }
      ],
      "name": "Ask",
      "type": "event"
    },
    {
      "anonymous": false,
      "inputs": [
        {
          "indexed": true,
          "name": "id",
          "type": "uint256"
        },
        {
          "indexed": true,
          "name": "ask_address",
          "type": "address"
        },
        {
          "indexed": true,
          "name": "associatted_address",
          "type": "address"
        },
        {
          "indexed": false,
          "name": "amount",
          "type": "uint256"
        },
        {
          "indexed": false,
          "name": "message",
          "type": "string"
        }
      ],
      "name": "Approve",
      "type": "event"
    },
    {
      "constant": false,
      "inputs": [
        {
          "name": "_address",
          "type": "address"
        },
        {
          "name": "name",
          "type": "string"
        },
        {
          "name": "ref",
          "type": "string"
        },
        {
          "name": "minter",
          "type": "bool"
        },
        {
          "name": "supply",
          "type": "bool"
        }
      ],
      "name": "newAssociated",
      "outputs": [],
      "payable": false,
      "stateMutability": "nonpayable",
      "type": "function"
    },
    {
      "constant": false,
      "inputs": [
        {
          "name": "_address",
          "type": "address"
        }
      ],
      "name": "disableAssociated",
      "outputs": [
        {
          "name": "",
          "type": "bool"
        }
      ],
      "payable": false,
      "stateMutability": "nonpayable",
      "type": "function"
    },
    {
      "constant": false,
      "inputs": [
        {
          "name": "_address",
          "type": "address"
        }
      ],
      "name": "enabledAssociated",
      "outputs": [
        {
          "name": "",
          "type": "bool"
        }
      ],
      "payable": false,
      "stateMutability": "nonpayable",
      "type": "function"
    },
    {
      "constant": true,
      "inputs": [],
      "name": "getAssociatedList",
      "outputs": [
        {
          "name": "",
          "type": "address[]"
        }
      ],
      "payable": false,
      "stateMutability": "view",
      "type": "function"
    },
    {
      "constant": true,
      "inputs": [
        {
          "name": "_address",
          "type": "address"
        }
      ],
      "name": "getAssociated",
      "outputs": [
        {
          "name": "name",
          "type": "string"
        },
        {
          "name": "enabled",
          "type": "bool"
        },
        {
          "name": "ref",
          "type": "string"
        },
        {
          "name": "supply",
          "type": "bool"
        },
        {
          "name": "minter",
          "type": "bool"
        }
      ],
      "payable": false,
      "stateMutability": "view",
      "type": "function"
    },
    {
      "constant": false,
      "inputs": [
        {
          "name": "id",
          "type": "uint256"
        },
        {
          "name": "_address",
          "type": "address"
        },
        {
          "name": "amount",
          "type": "uint256"
        },
        {
          "name": "message",
          "type": "string"
        }
      ],
      "name": "ask",
      "outputs": [
        {
          "name": "",
          "type": "bool"
        }
      ],
      "payable": false,
      "stateMutability": "nonpayable",
      "type": "function"
    },
    {
      "constant": false,
      "inputs": [
        {
          "name": "id",
          "type": "uint256"
        },
        {
          "name": "_address",
          "type": "address"
        },
        {
          "name": "amount",
          "type": "uint256"
        },
        {
          "name": "message",
          "type": "string"
        }
      ],
      "name": "approve",
      "outputs": [
        {
          "name": "",
          "type": "bool"
        }
      ],
      "payable": false,
      "stateMutability": "nonpayable",
      "type": "function"
    }
  ],
  "bytecode": "0x608060405234801561001057600080fd5b506040516020806116648339810180604052602081101561003057600080fd5b8101908080519060200190929190505050336000806101000a81548173ffffffffffffffffffffffffffffffffffffffff021916908373ffffffffffffffffffffffffffffffffffffffff16021790555080600160006101000a81548173ffffffffffffffffffffffffffffffffffffffff021916908373ffffffffffffffffffffffffffffffffffffffff16021790555050611592806100d26000396000f3fe608060405234801561001057600080fd5b506004361061007d5760003560e01c806379f7992e1161005b57806379f7992e146103b55780638503818614610411578063abb76afa14610518578063bfc5d4d0146105745761007d565b8063281d120c146100825780632b7b90e91461020c57806352f762f614610356575b600080fd5b61020a600480360360a081101561009857600080fd5b81019080803573ffffffffffffffffffffffffffffffffffffffff169060200190929190803590602001906401000000008111156100d557600080fd5b8201836020820111156100e757600080fd5b8035906020019184600183028401116401000000008311171561010957600080fd5b91908080601f016020809104026020016040519081016040528093929190818152602001838380828437600081840152601f19601f8201169050808301925050505050505091929192908035906020019064010000000081111561016c57600080fd5b82018360208201111561017e57600080fd5b803590602001918460018302840111640100000000831117156101a057600080fd5b91908080601f016020809104026020016040519081016040528093929190818152602001838380828437600081840152601f19601f82011690508083019250505050505050919291929080351515906020019092919080351515906020019092919050505061067b565b005b61024e6004803603602081101561022257600080fd5b81019080803573ffffffffffffffffffffffffffffffffffffffff1690602001909291905050506108af565b604051808060200186151515158152602001806020018515151515815260200184151515158152602001838103835288818151815260200191508051906020019080838360005b838110156102b0578082015181840152602081019050610295565b50505050905090810190601f1680156102dd5780820380516001836020036101000a031916815260200191505b50838103825286818151815260200191508051906020019080838360005b838110156103165780820151818401526020810190506102fb565b50505050905090810190601f1680156103435780820380516001836020036101000a031916815260200191505b5097505050505050505060405180910390f35b61035e610c3a565b6040518080602001828103825283818151815260200191508051906020019060200280838360005b838110156103a1578082015181840152602081019050610386565b505050509050019250505060405180910390f35b6103f7600480360360208110156103cb57600080fd5b81019080803573ffffffffffffffffffffffffffffffffffffffff169060200190929190505050610cc8565b604051808215151515815260200191505060405180910390f35b6104fe6004803603608081101561042757600080fd5b8101908080359060200190929190803573ffffffffffffffffffffffffffffffffffffffff169060200190929190803590602001909291908035906020019064010000000081111561047857600080fd5b82018360208201111561048a57600080fd5b803590602001918460018302840111640100000000831117156104ac57600080fd5b91908080601f016020809104026020016040519081016040528093929190818152602001838380828437600081840152601f19601f820116905080830192505050505050509192919290505050610e49565b604051808215151515815260200191505060405180910390f35b61055a6004803603602081101561052e57600080fd5b81019080803573ffffffffffffffffffffffffffffffffffffffff16906020019092919050505061104f565b604051808215151515815260200191505060405180910390f35b6106616004803603608081101561058a57600080fd5b8101908080359060200190929190803573ffffffffffffffffffffffffffffffffffffffff16906020019092919080359060200190929190803590602001906401000000008111156105db57600080fd5b8201836020820111156105ed57600080fd5b8035906020019184600183028401116401000000008311171561060f57600080fd5b91908080601f016020809104026020016040519081016040528093929190818152602001838380828437600081840152601f19601f8201169050808301925050505050505091929192905050506112a9565b604051808215151515815260200191505060405180910390f35b3373ffffffffffffffffffffffffffffffffffffffff166000809054906101000a900473ffffffffffffffffffffffffffffffffffffffff1673ffffffffffffffffffffffffffffffffffffffff16146106d457600080fd5b6000600260008773ffffffffffffffffffffffffffffffffffffffff1673ffffffffffffffffffffffffffffffffffffffff16815260200190815260200160002090508481600001908051906020019061072f9291906114c1565b50838160020190805190602001906107489291906114c1565b50828160030160016101000a81548160ff021916908315150217905550818160030160006101000a81548160ff02191690831515021790555060038690806001815401808255809150509060018203906000526020600020016000909192909190916101000a81548173ffffffffffffffffffffffffffffffffffffffff021916908373ffffffffffffffffffffffffffffffffffffffff1602179055505082156108a757600160009054906101000a900473ffffffffffffffffffffffffffffffffffffffff1673ffffffffffffffffffffffffffffffffffffffff1663983b2d56876040518263ffffffff1660e01b8152600401808273ffffffffffffffffffffffffffffffffffffffff1673ffffffffffffffffffffffffffffffffffffffff168152602001915050600060405180830381600087803b15801561088e57600080fd5b505af11580156108a2573d6000803e3d6000fd5b505050505b505050505050565b606060006060600080600260008773ffffffffffffffffffffffffffffffffffffffff1673ffffffffffffffffffffffffffffffffffffffff16815260200190815260200160002060010160009054906101000a900460ff161561097b576040517f08c379a000000000000000000000000000000000000000000000000000000000815260040180806020018281038252601f8152602001807f4173736f63696174656420697320616c72656164792064697361626c65642e0081525060200191505060405180910390fd5b600260008773ffffffffffffffffffffffffffffffffffffffff1673ffffffffffffffffffffffffffffffffffffffff168152602001908152602001600020600001600260008873ffffffffffffffffffffffffffffffffffffffff1673ffffffffffffffffffffffffffffffffffffffff16815260200190815260200160002060010160009054906101000a900460ff16600260008973ffffffffffffffffffffffffffffffffffffffff1673ffffffffffffffffffffffffffffffffffffffff168152602001908152602001600020600201600260008a73ffffffffffffffffffffffffffffffffffffffff1673ffffffffffffffffffffffffffffffffffffffff16815260200190815260200160002060030160009054906101000a900460ff16600260008b73ffffffffffffffffffffffffffffffffffffffff1673ffffffffffffffffffffffffffffffffffffffff16815260200190815260200160002060030160019054906101000a900460ff16848054600181600116156101000203166002900480601f016020809104026020016040519081016040528092919081815260200182805460018160011615610100020316600290048015610b845780601f10610b5957610100808354040283529160200191610b84565b820191906000526020600020905b815481529060010190602001808311610b6757829003601f168201915b50505050509450828054600181600116156101000203166002900480601f016020809104026020016040519081016040528092919081815260200182805460018160011615610100020316600290048015610c205780601f10610bf557610100808354040283529160200191610c20565b820191906000526020600020905b815481529060010190602001808311610c0357829003601f168201915b505050505092509450945094509450945091939590929450565b60606003805480602002602001604051908101604052809291908181526020018280548015610cbe57602002820191906000526020600020905b8160009054906101000a900473ffffffffffffffffffffffffffffffffffffffff1673ffffffffffffffffffffffffffffffffffffffff1681526020019060010190808311610c74575b5050505050905090565b60003373ffffffffffffffffffffffffffffffffffffffff166000809054906101000a900473ffffffffffffffffffffffffffffffffffffffff1673ffffffffffffffffffffffffffffffffffffffff1614610d2357600080fd5b600260008373ffffffffffffffffffffffffffffffffffffffff1673ffffffffffffffffffffffffffffffffffffffff16815260200190815260200160002060010160009054906101000a900460ff16610de5576040517f08c379a000000000000000000000000000000000000000000000000000000000815260040180806020018281038252601e8152602001807f4173736f63696174656420697320616c726561647920656e61626c65642e000081525060200191505060405180910390fd5b6001600260008473ffffffffffffffffffffffffffffffffffffffff1673ffffffffffffffffffffffffffffffffffffffff16815260200190815260200160002060010160006101000a81548160ff02191690831515021790555060019050919050565b60008373ffffffffffffffffffffffffffffffffffffffff163373ffffffffffffffffffffffffffffffffffffffff16867f657ad2f6ee451f7c8f6c2b25b440c85647fb34aa4e034d000fc9f26cbb47862386866040518083815260200180602001828103825283818151815260200191508051906020019080838360005b83811015610ee3578082015181840152602081019050610ec8565b50505050905090810190601f168015610f105780820380516001836020036101000a031916815260200191505b50935050505060405180910390a4600260008573ffffffffffffffffffffffffffffffffffffffff1673ffffffffffffffffffffffffffffffffffffffff16815260200190815260200160002060030160019054906101000a900460ff1615611047578373ffffffffffffffffffffffffffffffffffffffff163373ffffffffffffffffffffffffffffffffffffffff16867f657ad2f6ee451f7c8f6c2b25b440c85647fb34aa4e034d000fc9f26cbb47862386866040518083815260200180602001828103825283818151815260200191508051906020019080838360005b8381101561100b578082015181840152602081019050610ff0565b50505050905090810190601f1680156110385780820380516001836020036101000a031916815260200191505b50935050505060405180910390a45b949350505050565b60003373ffffffffffffffffffffffffffffffffffffffff166000809054906101000a900473ffffffffffffffffffffffffffffffffffffffff1673ffffffffffffffffffffffffffffffffffffffff16146110aa57600080fd5b600260008373ffffffffffffffffffffffffffffffffffffffff1673ffffffffffffffffffffffffffffffffffffffff16815260200190815260200160002060010160009054906101000a900460ff161561116d576040517f08c379a000000000000000000000000000000000000000000000000000000000815260040180806020018281038252601f8152602001807f4173736f63696174656420697320616c72656164792064697361626c65642e0081525060200191505060405180910390fd5b6000600260008473ffffffffffffffffffffffffffffffffffffffff1673ffffffffffffffffffffffffffffffffffffffff16815260200190815260200160002060010160006101000a81548160ff021916908315150217905550600260008373ffffffffffffffffffffffffffffffffffffffff1673ffffffffffffffffffffffffffffffffffffffff16815260200190815260200160002060030160019054906101000a900460ff16156112a057600160009054906101000a900473ffffffffffffffffffffffffffffffffffffffff1673ffffffffffffffffffffffffffffffffffffffff1663986502756040518163ffffffff1660e01b8152600401600060405180830381600087803b15801561128757600080fd5b505af115801561129b573d6000803e3d6000fd5b505050505b60019050919050565b6000600260008573ffffffffffffffffffffffffffffffffffffffff1673ffffffffffffffffffffffffffffffffffffffff16815260200190815260200160002060030160019054906101000a900460ff16156114b957600160009054906101000a900473ffffffffffffffffffffffffffffffffffffffff1673ffffffffffffffffffffffffffffffffffffffff1663095ea7b385856040518363ffffffff1660e01b8152600401808373ffffffffffffffffffffffffffffffffffffffff1673ffffffffffffffffffffffffffffffffffffffff16815260200182815260200192505050602060405180830381600087803b1580156113a957600080fd5b505af11580156113bd573d6000803e3d6000fd5b505050506040513d60208110156113d357600080fd5b8101908080519060200190929190505050508373ffffffffffffffffffffffffffffffffffffffff163373ffffffffffffffffffffffffffffffffffffffff16867ff491baa1c5ddc7494aa09817429f810e2d3db75ea19682cef4e2c9ab7bf4feab86866040518083815260200180602001828103825283818151815260200191508051906020019080838360005b8381101561147d578082015181840152602081019050611462565b50505050905090810190601f1680156114aa5780820380516001836020036101000a031916815260200191505b50935050505060405180910390a45b949350505050565b828054600181600116156101000203166002900490600052602060002090601f016020900481019282601f1061150257805160ff1916838001178555611530565b82800160010185558215611530579182015b8281111561152f578251825591602001919060010190611514565b5b50905061153d9190611541565b5090565b61156391905b8082111561155f576000816000905550600101611547565b5090565b9056fea165627a7a72305820252e50b44c43fb3e23212bffce14957a436a6a82c63fee2ec48ee41c1632e2120029",
  "source": "pragma solidity ^0.5.1;\n\nimport \"./RCC.sol\";\n\ncontract RccDao {\n        \n    event Ask(\n        uint indexed  id,\n        address indexed  ask_address,\n        address indexed  associatted_address,\n        uint amount,\n        string message\n    );\n\n    event Approve(\n        uint indexed  id,\n        address indexed  ask_address,\n        address indexed  associatted_address,\n        uint amount,\n        string message\n    );\n\n    address owner;\n    RCC rcc;\n    \n    \n    constructor(address rcc_address) public {\n        owner = msg.sender;\n        rcc = RCC(rcc_address);             \n    }\n\n    \n    \n    modifier onlyOwner {\n        require(owner == msg.sender);\n        _;\n    }\n    \n    struct Associated {        \n        string name;\n        bool enabled;\n        string ref ;\n        bool supply;\n        bool minter;\n    }    \n    \n \n    // Cada Asociado tiene su dirección con la que opera sobre la DAO\n    mapping (address => Associated) _associated;\n\n    \n    // Necesario para obtener la lista completa de asociados.\n    address[] internal _associatedList;\n        \n\n    function newAssociated(address _address, string memory name, string memory ref, bool minter, bool supply) onlyOwner public {\n    \n        // Primero hay que comprobar que el assoiciado ya existe\n        \n        \n        Associated storage associated = _associated[_address]; \n                \n        associated.name = name;\n        associated.ref = ref;\n        associated.minter = minter;\n        associated.supply = supply;\n        \n        // Se añade el asociado a la tabla de asociados\n        _associatedList.push(_address);\n        \n        // Se añade como Minter al nuevo asociado\n        if (minter){\n            rcc.addMinter(_address);            \n        }\n        \n    }\n    \n \n    function disableAssociated(address _address) onlyOwner public returns (bool) {\n        \n        require(!_associated[_address].enabled, \"Associated is already disabled.\");\n        _associated[_address].enabled = false;\n        \n        // Se elimina la propiedad de Minter al asociado\n        if (_associated[_address].minter){\n            rcc.renounceMinter();\n        }\n         \n        return true;\n    }\n    \n     function enabledAssociated(address _address) onlyOwner public returns (bool) {\n        \n        require(_associated[_address].enabled, \"Associated is already enabled.\");\n        _associated[_address].enabled = true;\n         \n        return true;\n    }\n    \n    function getAssociatedList() view public returns (address[] memory) {\n        return _associatedList;\n    }\n    \n    function getAssociated(address _address ) view public returns (string memory name, bool enabled, string memory ref, bool supply, bool minter) {\n        require(!_associated[_address].enabled, \"Associated is already disabled.\");\n        return (_associated[_address].name, _associated[_address].enabled, _associated[_address].ref, _associated[_address].supply, _associated[_address].minter);\n    }\n    \n    \n    function ask(uint id, address _address, uint amount, string memory message ) public returns (bool) {\n        emit Ask(id, msg.sender, _address, amount, message);\n        if (_associated[_address].minter){            \n            emit Ask(id, msg.sender, _address, amount, message);\n        }        \n    }\n\n    function approve(uint id, address _address, uint amount, string memory message ) public returns (bool) {\n        if (_associated[_address].minter){\n            rcc.approve(_address, amount);\n\n            emit Approve(id, msg.sender, _address, amount, message);\n        }        \n    }\n    \n}",
  "sourcePath": "/home/cesar/master/master-rcc/truffle/contracts/RccDao.sol",
  "compiler": {
    "name": "solc",
    "version": "0.5.8+commit.23d335f2.Emscripten.clang"
  },
  "schemaVersion": "3.0.13",
  "updatedAt": "2019-08-27T16:15:46.093Z",
  "devdoc": {
    "methods": {}
  },
  "userdoc": {
    "methods": {}
  }
}